:10000000D80A0020B5010000190200001902000002
:10001000190200001902000019020000000000008F
:1000200000000000000000000000000019020000B5
:10003000190200000000000019020000190200006F
:10004000F11E000019020000A11B0000C91B0000E6
:10005000F51A0000491B00001902000019020000F7
:100060001902000019020000190200001902000024
:100070001902000019020000210200009102000094
:1000800001030000710300001902000019020000C2
:1000900019020000190200001902000019020000F4
:1000A00019020000190200001902000019020000E4
:1000B000F5200000190200001902000019020000DA
:1000C00080B584B000AF304B1B695B075B0FDBB2C0
:1000D000BB60BB68052B01D90423BB60BB68022B46
:1000E00005D02A4BBA689200D358FB602CE0264B0F
:1000F0001B6A1B049B0FDBB27B607B68012B02D960
:100100007B68013B7B60204B1B6A1B03DB0FDBB270
:10011000002B01D01E4A00E01E4A1B4B1B6ADB0568
:10012000DB0D9BB202335A43174B1B6A9B04DB0E59
:10013000DBB202331900100002F068FA03001A0063
:100140007B68DA401300FB600F4B9B691B071B0F9A
:10015000DBB201331900F86802F058FA03001A0004
:100160000D4B1A600C4B1B680C4A944663440C49B7
:10017000180002F04BFA03001A000A4B1A60C0463E
:10018000BD4604B080BDC0460002005008000020FB
:1001900000805101001BB7000000002020A10700D3
:1001A00040420F000400002080B500AFC046BD46AD
:1001B00080BDC04680B582B000AF124B7B60124B51
:1001C0003B6007E03B681A1D3A607A68111D796050
:1001D00012681A603A680D4B9A42F3D30C4B3B609D
:1001E00004E03B681A1D3A6000221A603A68094B25
:1001F0009A42F6D3FFF7D8FF01F0C2FBC046BD46D6
:1002000002B080BD603100000000002034060020F4
:1002100034060020D406002080B500AFFEE7C046BB
:1002200080B500AF184B1B68DB03DB0FDBB2012B83
:100230000FD1154A1368802149020B431360134BF9
:100240005B68002B05D0114B5A68104B9B68180057
:1002500090470D4BDB6B1B05DB0FDBB2012B0FD186
:10026000094AD36B802109010B43D363074BDB6839
:10027000002B05D0054BDA68044B1B69180090472A
:10028000C046BD4680BDC046000003403406002085
:1002900080B500AF184B1B68DB03DB0FDBB2012B13
:1002A0000FD1154A1368802149020B431360134B89
:1002B0009B69002B05D0114B9A69104BDB69180024
:1002C00090470D4BDB6B1B05DB0FDBB2012B0FD116
:1002D000094AD36B802109010B43D363074B1B6A87
:1002E000002B05D0054B1A6A044B5B6A1800904737
:1002F000C046BD4680BDC0460040034034060020D5
:1003000080B500AF184B1B68DB03DB0FDBB2012BA2
:100310000FD1154A1368802149020B431360134B18
:10032000DB6A002B05D0114BDA6A104B1B6B1800EF
:1003300090470D4BDB6B1B05DB0FDBB2012B0FD1A5
:10034000094AD36B802109010B43D363074B5B6BD5
:10035000002B05D0054B5A6B044B9B6B1800904744
:10036000C046BD4680BDC046000013403406002094
:1003700080B500AF184B1B68DB03DB0FDBB2012B32
:100380000FD1154A1368802149020B431360134BA8
:100390001B6C002B05D0114B1A6C104B5B6C1800BA
:1003A00090470D4BDB6B1B05DB0FDBB2012B0FD135
:1003B000094AD36B802109010B43D363074B9B6C24
:1003C000002B05D0054B9A6C044BDB6C1800904752
:1003D000C046BD4680BDC0460040134034060020E4
:1003E00080B500AF4D4B1900002002F0CBF84C4B0C
:1003F000180001F095FE4B4B1900012002F0C2F8E5
:10040000474B180001F08CFE474B1900022002F008
:10041000B9F8434B180001F083FE444B1900032048
:1004200002F0B0F8424B180001F07AFE02F0CEF86C
:10043000404B1900002002F0A5F8394B180001F0DC
:100440006FFE3D4B1900012002F09CF8344B180060
:1004500001F066FE394B1900022002F093F8304B90
:10046000180001F05DFE02F0B1F8354B19000120D3
:1004700002F088F82A4B180001F052FE314B1900A7
:10048000012002F07FF8264B180001F049FE02F02F
:100490009DF82D4B1900012002F074F80B2101206A
:1004A00001F05EFC294B180001F03AFE0B210120FF
:1004B00001F008FC1A4B180001F032FE244B190021
:1004C000012002F05FF80B21012001F049FC1F4BD5
:1004D000180001F025FE0B21012001F0F3FB104B69
:1004E000180001F01DFE1B4B1900012002F04AF814
:1004F0000B21012001F034FC144B180001F010FE18
:100500000B21012001F0DEFB054B180001F008FE75
:1005100002F05CF8C046BD4680BDC046642E0000B7
:1005200040420F00742E0000842E0000902E000028
:10053000404B4C00A02E0000B02E0000C02E00004A
:10054000D42E0000E42E0000F82E0000A08601004A
:10055000042F0000102F000080B500AF0D210020F7
:1005600001F0B0FB0C21022001F0ACFB0D210220B8
:1005700001F0A8FB0E21022001F0A4FB0F210220B4
:1005800001F0A0FB01F006F95B4B01221A6010E0BC
:1005900002F01CF8594B1900002001F0F3FF584BF2
:1005A0001B68180001F0BCFD534B1B685A1C524BD2
:1005B0001A60514B1B68012BEADD524B19000120D8
:1005C00001F0E0FF504B1900022001F0DBFF01F0C9
:1005D0000FF8494B00221A607EE001F01BFC03007B
:1005E0001A004A4B1A60494B1B68012B24D101F0B9
:1005F000EDFF474B1900012001F0C4FF454B1900E6
:10060000022001F0BFFF0C21002001F05BFB0D2157
:10061000002001F0A5FB0E21002001F053FB01F0AA
:1006200063F93D4B180001F07BFD3C4B1B685A1CE5
:100630003A4B1A6001F034F8344B1B68032B1BD083
:10064000324B1B68022B17D0304B1B68042B13D086
:100650002E4B1B68052B0FD02C4B1B68062B0BD089
:100660002A4B1B68072B07D0284B1B68082B03D08D
:10067000264B1B68092B28D101F0A8FF284B190035
:10068000012001F07FFF274B1900022001F07AFFC3
:100690000C21022001F064FB0D21022001F060FB1F
:1006A0000E21022001F05CFB0F21022001F058FB1B
:1006B00001F02EF9184B180001F032FD1A4B1B689F
:1006C0005A1E194B1A6000F0EBFF01F063F80A4B59
:1006D0001B685A1C084B1A60074B1A68134B1B689F
:1006E0009A4200DC79E7094B1B68002B01D100F02E
:1006F000ADFFC046BD4680BDBC0600201C2F0000DB
:100700001C000020282F00003C2F0000B406002011
:100710004C2F0000582F000080841E00B8060020D7
:10072000682F0000742F000024000020200000200B
:1007300080B500AF0D21002001F0C4FA0C21022089
:1007400001F0C0FA0D21022001F0BCFA0E210220B6
:1007500001F0B8FA0F21022001F0B4FA01F01AF802
:100760005B4B01221A6010E001F030FF594B190079
:10077000002001F007FF584B1B68180001F0D0FC67
:10078000534B1B685A1C524B1A60514B1B68022B6F
:10079000EADD524B1900012001F0F4FE504B190024
:1007A000022001F0EFFE00F023FF494B00221A6007
:1007B0007EE001F02FFB03001A004A4B1A60494B00
:1007C0001B68022B24D101F001FF474B19000120C7
:1007D00001F0D8FE454B1900022001F0D3FE0C2198
:1007E000002001F06FFA0D21002001F0B9FA0E216E
:1007F000002001F067FA01F077F83D4B180001F096
:100800008FFC3C4B1B685A1C3A4B1A6000F048FFA7
:10081000344B1B68012B1BD0324B1B68042B17D0A9
:10082000304B1B68032B13D02E4B1B68052B0FD0AE
:100830002C4B1B68062B0BD02A4B1B68072B07D0B1
:10084000284B1B68082B03D0264B1B68092B28D18B
:1008500001F0BCFE284B1900012001F093FE274B4C
:100860001900022001F08EFE0C21022001F078FA1E
:100870000D21022001F074FA0E21022001F070FA1D
:100880000F21022001F06CFA01F042F8184B180019
:1008900001F046FC1A4B1B685A1E194B1A6000F0F7
:1008A000FFFE00F077FF0A4B1B685A1C084B1A60CA
:1008B000074B1A68134B1B689A4200DC79E7094B17
:1008C0001B68002B01D100F0C1FEC046BD4680BDB3
:1008D000BC060020842F00001C000020282F0000F0
:1008E0003C2F0000B40600204C2F0000582F0000C1
:1008F00080841E00B8060020682F0000742F0000BE
:10090000240000202000002080B500AF0D21002031
:1009100001F0D8F90C21022001F0D4F90D210220B8
:1009200001F0D0F90E21022001F0CCF90F210220B4
:1009300001F0C8F900F02EFF5B4B01221A6010E0B5
:1009400001F044FE594B1900002001F01BFE584BEA
:100950001B68180001F0E4FB534B1B685A1C524BF8
:100960001A60514B1B68032BEADD524B1900012022
:1009700001F008FE504B1900022001F003FE00F0C8
:1009800037FE494B00221A607EE001F043FA030073
:100990001A004A4B1A60494B1B68032B24D101F003
:1009A00015FE474B1900012001F0ECFD454B1900E5
:1009B000022001F0E7FD0C21002001F083F90D2158
:1009C000002001F0CDF90E21002001F07BF900F0AC
:1009D0008BFF3D4B180001F0A3FB3C4B1B685A1CDE
:1009E0003A4B1A6000F05CFE344B1B68012B1BD0A5
:1009F000324B1B68022B17D0304B1B68042B13D0D3
:100A00002E4B1B68052B0FD02C4B1B68062B0BD0D5
:100A10002A4B1B68072B07D0284B1B68082B03D0D9
:100A2000264B1B68092B28D101F0D0FD284B19005B
:100A3000012001F0A7FD274B1900022001F0A2FDC3
:100A40000C21022001F08CF90D21022001F088F91F
:100A50000E21022001F084F90F21022001F080F91B
:100A600000F056FF184B180001F05AFB1A4B1B6898
:100A70005A1E194B1A6000F013FE00F08BFE0A4B51
:100A80001B685A1C084B1A60074B1A68134B1B68EB
:100A90009A4200DC79E7094B1B68002B01D100F07A
:100AA000D5FDC046BD4680BDBC060020942F000089
:100AB0001C000020A42F0000B42F0000B40600206A
:100AC000C42F0000CC2F000080841E00B806002038
:100AD000D82F0000E02F000024000020200000207C
:100AE00080B500AF0D21002001F0ECF80C210220B0
:100AF00001F0E8F80D21022001F0E4F80E210220B7
:100B000001F0E0F80F21022001F0DCF800F042FED5
:100B10005B4B01221A6010E001F058FD594B19009F
:100B2000002001F02FFD584B1B68180001F0F8FA67
:100B3000534B1B685A1C524B1A60514B1B68042BB9
:100B4000EADD524B1900012001F01CFD504B190049
:100B5000022001F017FD00F04BFD494B00221A6006
:100B60007EE001F057F903001A004A4B1A60494B26
:100B70001B68042B24D101F029FD474B19000120EB
:100B800001F000FD454B1900022001F0FBFC0C2197
:100B9000002001F097F80D21002001F0E1F80E216E
:100BA000002001F08FF800F09FFE3D4B180001F08F
:100BB000B7FA3C4B1B685A1C3A4B1A6000F070FDA8
:100BC000344B1B68012B1BD0324B1B68022B17D0F8
:100BD000304B1B68032B13D02E4B1B68052B0FD0FB
:100BE0002C4B1B68062B0BD02A4B1B68072B07D0FE
:100BF000284B1B68082B03D0264B1B68092B28D1D8
:100C000001F0E4FC284B1900012001F0BBFC274B4C
:100C10001900022001F0B6FC0C21022001F0A0F81E
:100C20000D21022001F09CF80E21022001F098F81D
:100C30000F21022001F094F800F06AFE184B180012
:100C400001F06EFA1A4B1B685A1E194B1A6000F01D
:100C500027FD00F09FFD0A4B1B685A1C084B1A60C9
:100C6000074B1A68134B1B689A4200DC79E7094B63
:100C70001B68002B01D100F0E9FCC046BD4680BDD9
:100C8000BC060020EC2F00001C000020A42F000058
:100C9000B42F0000B4060020C42F0000CC2F0000A9
:100CA00080841E00B8060020D82F0000E02F00002E
:100CB000240000202000002080B500AF0D2100207E
:100CC00001F000F80C21022000F0FCFF0D210220B1
:100CD00000F0F8FF0E21022000F0F4FF0F210220A7
:100CE00000F0F0FF00F056FD5B4B01221A6010E0AF
:100CF00001F06CFC594B1900002001F043FC584BEB
:100D00001B68180001F00CFA534B1B685A1C524B1D
:100D10001A60514B1B68052BEADD524B190001206C
:100D200001F030FC504B1900022001F02BFC00F0C8
:100D30005FFC494B00221A607EE001F06BF8030073
:100D40001A004A4B1A60494B1B68052B24D101F04D
:100D50003DFC474B1900012001F014FC454B1900E4
:100D6000022001F00FFC0C21002000F0ABFF0D2150
:100D7000002000F0F5FF0E21002000F0A3FF00F09E
:100D8000B3FD3D4B180001F0CBF93C4B1B685A1CDE
:100D90003A4B1A6000F084FC344B1B68012B1BD0CB
:100DA000324B1B68022B17D0304B1B68032B13D020
:100DB0002E4B1B68042B0FD02C4B1B68062B0BD023
:100DC0002A4B1B68072B07D0284B1B68082B03D026
:100DD000264B1B68092B28D101F0F8FB284B190082
:100DE000012001F0CFFB274B1900022001F0CAFBC4
:100DF0000C21022000F0B4FF0D21022000F0B0FF12
:100E00000E21022000F0ACFF0F21022000F0A8FF0D
:100E100000F07EFD184B180001F082F91A4B1B6898
:100E20005A1E194B1A6000F03BFC00F0B3FC0A4B51
:100E30001B685A1C084B1A60074B1A68134B1B6837
:100E40009A4200DC79E7094B1B68002B01D100F0C6
:100E5000FDFBC046BD4680BDBC060020FC2F000047
:100E60001C000020A42F0000B42F0000B4060020B6
:100E7000C42F0000CC2F000080841E00B806002084
:100E8000D82F0000E02F00002400002020000020C8
:100E900080B500AF0D21002000F014FF0C210220CE
:100EA00000F010FF0D21022000F00CFF0E210220A7
:100EB00000F008FF0F21022000F004FF00F06AFCA0
:100EC0005B4B01221A6010E001F080FB594B1900C6
:100ED000002001F057FB584B1B68180001F020F967
:100EE000534B1B685A1C524B1A60514B1B68062B04
:100EF000EADD524B1900012001F044FB504B190070
:100F0000022001F03FFB00F073FB494B00221A6006
:100F10007EE000F07FFF03001A004A4B1A60494B45
:100F20001B68062B24D101F051FB474B190001200F
:100F300001F028FB454B1900022001F023FB0C2196
:100F4000002000F0BFFE0D21002000F009FF0E215F
:100F5000002000F0B7FE00F0C7FC3D4B180001F088
:100F6000DFF83C4B1B685A1C3A4B1A6000F098FBA8
:100F7000344B1B68012B1BD0324B1B68022B17D044
:100F8000304B1B68032B13D02E4B1B68052B0FD047
:100F90002C4B1B68042B0BD02A4B1B68072B07D04C
:100FA000284B1B68082B03D0264B1B68092B28D124
:100FB00001F00CFB284B1900012001F0E3FA274B4C
:100FC0001900022001F0DEFA0C21022000F0C8FE18
:100FD0000D21022000F0C4FE0E21022000F0C0FE10
:100FE0000F21022000F0BCFE00F092FC184B18000C
:100FF00001F096F81A4B1B685A1E194B1A6000F044
:101000004FFB00F0C7FB0A4B1B685A1C084B1A60C9
:10101000074B1A68134B1B689A4200DC79E7094BAF
:101020001B68002B01D100F011FBC046BD4680BDFE
:10103000BC0600200C3000001C000020A42F000083
:10104000B42F0000B4060020C42F0000CC2F0000F5
:1010500080841E00B8060020D82F0000E02F00007A
:10106000240000202000002080B500AF0D210020CA
:1010700000F028FE0C21022000F024FE0D210220A9
:1010800000F020FE0E21022000F01CFE0F210220A5
:1010900000F018FE00F07EFB5B4B01221A6010E0AE
:1010A00001F094FA594B1900002001F06BFA584BEB
:1010B0001B68180001F034F8534B1B685A1C524B44
:1010C0001A60514B1B68072BEADD524B19000120B7
:1010D00001F058FA504B1900022001F053FA00F0C9
:1010E00087FA494B00221A607EE000F093FE03006D
:1010F0001A004A4B1A60494B1B68072B24D101F098
:1011000065FA474B1900012001F03CFA454B1900E4
:10111000022001F037FA0C21002000F0D3FD0D2150
:10112000002000F01DFE0E21002000F0CBFD00F09D
:10113000DBFB3D4B180000F0F3FF3C4B1B685A1CD7
:101140003A4B1A6000F0ACFA344B1B68012B1BD0F1
:10115000324B1B68022B17D0304B1B68032B13D06C
:101160002E4B1B68052B0FD02C4B1B68062B0BD06E
:101170002A4B1B68042B07D0284B1B68082B03D075
:10118000264B1B68092B28D101F020FA284B1900A7
:10119000012001F0F7F9274B1900022001F0F2F9C4
:1011A0000C21022000F0DCFD0D21022000F0D8FD12
:1011B0000E21022000F0D4FD0F21022000F0D0FD0E
:1011C00000F0A6FB184B180000F0AAFF1A4B1B6892
:1011D0005A1E194B1A6000F063FA00F0DBFA0A4B52
:1011E0001B685A1C084B1A60074B1A68134B1B6884
:1011F0009A4200DC79E7094B1B68002B01D100F013
:1012000025FAC046BD4680BDBC0600201C3000004B
:101210001C000020A42F0000B42F0000B406002002
:10122000C42F0000CC2F000080841E00B8060020D0
:10123000D82F0000E02F0000240000202000002014
:1012400080B500AF0D21002000F03CFD0C210220F4
:1012500000F038FD0D21022000F034FD0E210220A7
:1012600000F030FD0F21022000F02CFD00F092FA7A
:101270005B4B01221A6010E001F0A8F9594B1900EC
:10128000002001F07FF9584B1B68180000F048FF60
:10129000534B1B685A1C524B1A60514B1B68082B4E
:1012A000EADD524B1900012001F06CF9504B190096
:1012B000022001F067F900F09BF9494B00221A6007
:1012C0007EE000F0A7FD03001A004A4B1A60494B6C
:1012D0001B68082B24D101F079F9474B1900012034
:1012E00001F050F9454B1900022001F04BF90C2197
:1012F000002000F0E7FC0D21002000F031FD0E2160
:10130000002000F0DFFC00F0EFFA3D4B180000F089
:1013100007FF3C4B1B685A1C3A4B1A6000F0C0F99F
:10132000344B1B68012B1BD0324B1B68022B17D090
:10133000304B1B68032B13D02E4B1B68042B0FD094
:101340002C4B1B68062B0BD02A4B1B68072B07D096
:10135000284B1B68052B03D0264B1B68092B28D173
:1013600001F034F9284B1900012001F00BF9274B4B
:101370001900022001F006F90C21022000F0F0FC17
:101380000D21022000F0ECFC0E21022000F0E8FC10
:101390000F21022000F0E4FC00F0BAFA184B18000C
:1013A00000F0BEFE1A4B1B685A1E194B1A6000F063
:1013B00077F900F0EFF90A4B1B685A1C084B1A60CA
:1013C000074B1A68134B1B689A4200DC79E7094BFC
:1013D0001B68002B01D100F039F9C046BD4680BD25
:1013E000BC0600202C3000001C000020A42F0000B0
:1013F000B42F0000B4060020C42F0000CC2F000042
:1014000080841E00B8060020D82F0000E02F0000C6
:10141000240000202000002080B500AF0D21002016
:1014200000F050FC0C21022000F04CFC0D210220A9
:1014300000F048FC0E21022000F044FC0F210220A5
:1014400000F040FC00F0A6F95B4B01221A6010E0AE
:1014500001F0BCF8594B1900002001F093F8584BEB
:101460001B68180000F05CFE534B1B685A1C524B63
:101470001A60514B1B68092BEADD524B1900012001
:1014800001F080F8504B1900022001F07BF800F0C9
:10149000AFF8494B00221A607EE000F0BBFC03006D
:1014A0001A004A4B1A60494B1B68092B24D101F0E2
:1014B0008DF8474B1900012001F064F8454B1900E5
:1014C000022001F05FF80C21002000F0FBFB0D2151
:1014D000002000F045FC0E21002000F0F3FB00F09E
:1014E00003FA3D4B180000F01BFE3C4B1B685A1CD6
:1014F0003A4B1A6000F0D4F8344B1B68012B1BD018
:10150000324B1B68022B17D0304B1B68032B13D0B8
:101510002E4B1B68052B0FD02C4B1B68042B0BD0BC
:101520002A4B1B68072B07D0284B1B68082B03D0BE
:10153000264B1B68062B28D101F048F8284B1900D0
:10154000012001F01FF8274B1900022001F01AF8C2
:101550000C21022000F004FC0D21022000F000FC10
:101560000E21022000F0FCFB0F21022000F0F8FB0E
:1015700000F0CEF9184B180000F0D2FD1A4B1B6892
:101580005A1E194B1A6000F08BF800F003F90A4B51
:101590001B685A1C084B1A60074B1A68134B1B68D0
:1015A0009A4200DC79E7094B1B68002B01D100F05F
:1015B0004DF8C046BD4680BDBC0600203C30000052
:1015C0001C000020A42F0000B42F0000B40600204F
:1015D000C42F0000CC2F000080841E00B80600201D
:1015E000D82F0000E02F0000240000202000002061
:1015F00080B500AF114B1B68032B04D1104B1900B1
:10160000032000F0BFFF0D4B1B68022B04D10D4BD4
:101610001900032000F0B6FF084B1B68012B04D112
:10162000094B1900032000F0ADFF044B1B68002B91
:1016300001D100F043F9C046BD4680BD2400002022
:101640004C300000583000006430000080B500AF1E
:1016500000F0BCFF00F038FA0D4B1900012000F03B
:1016600091FF0C4B1900022000F08CFF00F050F9A4
:10167000094B1B685A1E084B1A60084B180000F0F3
:101680004FFD00F087F8FFF7B3FFC046BD4680BDB1
:1016900070300000803000002400002080841E0094
:1016A00080B500AF00F092FF00F074F8FFF7A0FFE4
:1016B000324B1B68324A9A18304B1A602F4B1A680B
:1016C000FA235B009A4203DC2E4BFA2252001A6086
:1016D0002D4B1A682D4B1A602C4B1B680A211800E1
:1016E00001F004F90B001A00294B1A60274B1B6804
:1016F0000A21180001F014F803001A00234B1A60A5
:10170000234B1B68002B01D1FFF7FEF8204B1B6811
:10171000012B01D1FFF7A8FC1D4B1B68022B01D147
:10172000FFF77AFE1A4B1B68032B01D1FFF7B0FBC2
:10173000174B1B68042B01D1FFF7D2F9144B1B6820
:10174000052B01D1FFF77CFD114B1B68062B01D146
:10175000FEF702FF0E4B1B68072B01D1FFF7ACFA17
:101760000B4B1B68082B01D1FEF7E2FF084B1B68EF
:10177000092B97D1FFF750FE94E7C0461C000020CC
:10178000C0E0FFFF20000020BC0600209C060020D7
:10179000A806002080B500AF424B1A68424B1A6081
:1017A000414B1B680A21180001F0A0F80B001A0039
:1017B0003E4B1A603C4B1B680A21180000F0B0FF3A
:1017C00003001A00384B1A60374B1B680A211800B7
:1017D00001F08CF80B001A00354B1A60324B1B6875
:1017E0000A21180000F09CFF03001A002E4B1A601B
:1017F0002D4B1B680A21180001F078F80B001A0025
:101800002C4B1A60284B1B680A21180000F088FF37
:1018100003001A00244B1A60234B1B680A2118008E
:1018200001F064F80B001A00234B1A6000F04CF929
:101830001E4B1B68DBB21900002000F0FBF8FA23F6
:101840009B00180000F06CFC00F03EF9184B1B6880
:10185000DBB21900012000F0EDF8FA239B0018001C
:1018600000F05EFC00F030F9124B1B68DBB219008F
:10187000022000F0DFF8FA239B00180000F050FC73
:1018800000F022F90C4B1B68DBB21900032000F0BA
:10189000D1F8FA239B00180000F042FCC046BD4678
:1018A00080BDC046B8060020B0060020AC0600206F
:1018B000C8060020C0060020CC06002080B500AF7E
:1018C00000F084FEFFF766FF054B1900012000F0D1
:1018D00059FE044B1900022000F054FEF2E7C04606
:1018E00090300000742F000080B500AF0B21012064
:1018F00000F036FA054B180000F012FC0B21012015
:1019000000F0E0F9C046BD4680BDC046A08601009B
:1019100080B500AF0B21012000F022FA174B180010
:1019200000F0FEFB0B21012000F0CCF9134B180056
:1019300000F0F6FB0B21012000F012FA0F4B18000B
:1019400000F0EEFB0B21012000F0BCF90B4B18005E
:1019500000F0E6FB0B21012000F002FA074B180013
:1019600000F0DEFB0B21012000F0ACF9034B180066
:1019700000F0D6FBC046BD4680BDC046A086010033
:1019800080B500AF244B59221A60234B16221A60EF
:10199000214B88221A600121002000F04DFB1F4AD4
:1019A000136801210B4313601D4B180000F0B8FBB6
:1019B000002000F0B1FA184B00221A600021032029
:1019C00000F0D6FA00F00AFA00F0CAFB00F0FEFDC3
:1019D0000E21032000F0C4F9124B180000F0A0FB08
:1019E000114B1B68180001F0D7F9031C8B21C905A6
:1019F000181C00F081FF031C0C49181C01F096F81C
:101A0000031C181C01F0A6F90200094B1A60FEF72E
:101A1000E7FCFFF745FEE3E700010050000200503D
:101A20008813000040420F00C406002000409C457F
:101A3000A006002080B584B000AF0200FB1D1A7024
:101A4000BB1D0A1C1A70BB1D1A780F23FB181D49F9
:101A50008A5C1A700E23FB1800221A7022E00F23F2
:101A6000FB181B780122134007D00E23FB181B78AC
:101A70001900042000F026F906E00E23FB181B785D
:101A80001900042000F06CF90F23FB180F22BA187C
:101A9000127852081A700E23FB181A780E23FB18BE
:101AA00001321A700E23FB181B78072BD7D9FB1DA8
:101AB0001B7804331900022000F004F9C046BD462B
:101AC00004B080BD2800002080B500AF04210220B2
:101AD00000F046F90521022000F042F9062102201B
:101AE00000F03EF90721022000F03AF9C046BD4659
:101AF00080BDC04680B582B000AF0F4B1B6A7B60D3
:101B00000E4B1B6A3B603B680D4A13403B600A4B1F
:101B10007A681A62094B3A681A620A4B1B68002BF2
:101B200005D0084B1B687A68396810009847C04692
:101B3000BD4602B080BDC04600400050404000504D
:101B4000FF3FFFFF8406002080B584B000AF104B3C
:101B50001B6AFB600F4B1B6ABB600F4B1B6A7B60F1
:101B60000B4BFA681A620B4BBA681A620A4B7A6816
:101B70001A620A4B1B68002B05D0084B1B68F868DB
:101B8000B9687A689847C046BD4604B080BDC04673
:101B900080400050C04000500041005088060020A6
:101BA00080B500AF064B8022D2011A62054B1B683C
:101BB000002B02D0034B1B689847C046BD4680BD32
:101BC000404000508C06002080B500AF064B8022BC
:101BD00012021A62054B1B68002B02D0034B1B68D4
:101BE0009847C046BD4680BD40400050900600204A
:101BF00080B584B000AF39601100FB1D021C1A7063
:101C0000BB1D0A1C1A703B68002B02DB3B68102BC3
:101C100001DD2A4B4EE0FB1D1B789B01284A9446B0
:101C20006344FB60BB1D1B78002B07D0BB1D1B78DA
:101C3000012B03D0BB1D1B78022B28D1FB68FA684F
:101C4000126839684900032088400100C9430A40EE
:101C50001A60BB1D1B78012B0AD1FB68FA68126859
:101C6000396849000120884001000A431A601FE0DA
:101C7000BB1D1B78022B1BD1FB68FA681268396800
:101C800049000220884001000A431A6010E0BB1D91
:101C90001B78032B0AD1FB68FA681268396849007F
:101CA0000320884001000A431A6002E0034B01E070
:101CB000C04600231800BD4604B080BD0189FFFF67
:101CC0000040005080B584B000AF02003960FB1DB9
:101CD0001A703B68002B02DB3B68102B01DD0B4BBD
:101CE00010E0FB1D1B789B01094A94466344FB608E
:101CF000FB689B6801213A6891400A001A43FB681F
:101D00009A6000231800BD4604B080BD0189FFFF22
:101D10000040005080B584B000AF02003960FB1D68
:101D20001A703B68002B02DB3B68102B01DD0A4B6D
:101D30000EE0FB1D1B789B01084A94466344FB6040
:101D4000FB681A683B68DA4013001A00012313404D
:101D50001800BD4604B080BD0189FFFF104000504F
:101D600080B584B000AF02003960FB1D1A703B687B
:101D7000002B02DB3B68102B01DD0C4B11E0FB1D3F
:101D80001B789B010A4A94466344FB60FB689B688E
:101D900001213A6891400A00D2431A40FB689A60D8
:101DA00000231800BD4604B080BDC0460189FFFF76
:101DB0000040005080B582B000AF00237B6002E09D
:101DC0007B6801337B607B68034A9342F8DDC04641
:101DD000BD4602B080BDC046E703000080B582B0BA
:101DE00000AFFB1D00221A700BE0FB1D1B780322C5
:101DF00019000020FFF7FCFEFB1D1A78FB1D0132C5
:101E00001A70FB1D1B78052BEFD9C046BD4602B0EA
:101E100080BDC04680B582B000AF3B0000221A6092
:101E20003B003B221A703B003D225A703B003E2291
:101E30009A70FB1D00221A7051E0FB1D1A78BB1D21
:101E400039008A5C1A707B1D00221A701BE0BB1DD2
:101E50001B780122134006D07B1D1B78190000203F
:101E6000FFF730FF05E07B1D1B7819000020FFF70E
:101E700077FFBB1DBA1D127852081A707B1D1A78A5
:101E80007B1D01321A707B1D1B78052BDFD9FFF7F4
:101E900091FF03210020FFF73DFF031E04D1FB1D2E
:101EA0001B780133DBB21FE004210020FFF732FF73
:101EB000031E04D1FB1D1B780433DBB214E00521A3
:101EC0000020FFF727FF031E04D1FB1D1B780733FB
:101ED000DBB209E0FB1D1A78FB1D01321A70FB1DF5
:101EE0001B78022BA9D900231800BD4602B080BD83
:101EF00080B500AFA023DB059A6910210A439A61DF
:101F0000044B1B68002B02D0024B1B689847C0464D
:101F1000BD4680BD9406002080B582B000AF0200AF
:101F2000FB1D1A70FB1D1B78072B07D8FB1D1B78A8
:101F3000032B05D9FB1D1B78062B01D80A4B0FE09C
:101F40000A4AFB1D1B7807210B40D9B213690720F1
:101F50000140072083430B431361FEF7B1F80023D0
:101F60001800BD4602B080BD0396FFFF000200507E
:101F700080B582B000AF02003960FB1D1A70FB1DF6
:101F80001B78002B0BD1284A3B68D9B29369FF20FC
:101F900001400904254803400B4393613EE0FB1DCB
:101FA0001B78012B0FD1204A3B68DBB2191C0F2391
:101FB0000B40D9B293690F20014009021C4803402D
:101FC0000B4393612AE0FB1D1B78022B0FD1164AAD
:101FD0003B68DBB2191C0F230B40D9B293690F2069
:101FE00001400901F02083430B43936116E0FB1D80
:101FF0001B78032B10D10C4A3B68DBB2191C0F2352
:102000000B40D9B293690F2001400F2083430B434B
:102010009361FEF755F801E0064B00E0002318003D
:10202000BD4602B080BDC04600020050FFFF00FF69
:10203000FFF0FFFF0596FFFF80B582B000AF020002
:102040003960FB1D1A70FB1D1B78012B17D002DCB9
:10205000002B05D043E0022B21D0032B2FD03EE0F4
:10206000224A3B68DBB2191C01230B40D9B213682A
:1020700001200140012083430B43136031E01B4AE0
:102080003B68DBB2191C01230B40D9B21368012055
:1020900001404900022083430B43136021E0134AAF
:1020A0003B68DBB2191C01230B40D9B21368012035
:1020B00001408900042083430B43136011E00B4A65
:1020C0003B68DBB2191C01230B40D9B21368012015
:1020D0000140C900082083430B43136001E0044B17
:1020E00000E000231800BD4602B080BD0002005091
:1020F0000396FFFF80B500AF074A136840210B43EA
:102100001360064B1B68002B02D0044B1B689847DA
:10211000C046BD4680BDC046000200509806002063
:1021200080B582B000AF78600B4A0C4B1B687968B1
:102130004B435360084B00229A60074B05221A60FC
:10214000C046054B1A6880235B021340F9D0C04695
:10215000BD4602B080BDC04610E000E00400002093
:1021600080B500AF6F4A9368802109020B439360EA
:10217000A023DB05DA68802109020A43DA60A02384
:10218000DB05DA6868490A40DA60A023DB05DA6B10
:10219000802149000A43DA63A023DB05DA6B802142
:1021A00089000A43DA63A023DB05DA6B8021090189
:1021B0000A43DA635D4BDB681A68802109010A4330
:1021C0001A605A4BDB681A68F8218A4348210A438F
:1021D0001A60564BDB681A6804210A431A60534B95
:1021E000DB685A68120C120403210A435A604F4BF1
:1021F000DB689A6803218A4301210A439A604B4BAA
:10220000DB68EB221A62494BDB681A6801210A433A
:102210001A60C046454BDB681B68DB07DB0FDBB28F
:10222000012BF7D0414BDB689A6803218A439A60FF
:102230003E4BDB689A6803218A4301210A439A6076
:102240003A4BDB6881221A62384BDB681A6801213D
:102250000A431A60C046354BDB681B68DB07DB0F9F
:10226000DBB2012BF7D0314BDB68A0221A622F4B77
:10227000DB681A6801210A431A60C0462B4BDB68F1
:102280001B68DB07DB0FDBB2012BF7D0274BDB68CA
:102290009A6803218A439A60244BDB689A68032179
:1022A0008A4301210A439A60204BDB68C0221A62EC
:1022B0001E4BDB681A6801210A431A60C0461B4B9B
:1022C000DB681B68DB07DB0FDBB2012BF7D0174B9A
:1022D000DB689A6803218A439A60144BDB689A682A
:1022E00003218A4301210A439A60104BDB68AF2225
:1022F0001A620E4BDB681A6801210A431A60C04655
:102300000A4BDB681B68DB07DB0FDBB2012BF7D066
:10231000064BDB689A6803218A439A60C046BD4633
:1023200080BDC04600020050FF7FFFFF2406002052
:1023300080B582B000AF0200FB1D1A70144BDB6841
:102340009A6803218A4301210A439A60104BDB6893
:10235000FA1D1278802149000A431A620C4BDB688F
:102360001A6801210A431A60C046094BDB681B68E2
:10237000DB07DB0FDBB2012BF7D0054BDB689A687C
:1023800003218A439A60C046BD4602B080BDC04664
:102390002406002080B582B000AF0200FB1D1A7039
:1023A000BB1D0A1C1A703B4BDB689A6803218A43E9
:1023B00001210A439A60374BDB68FA1D12785021DD
:1023C00049420A43D2B21A62324BDB681A680121D1
:1023D0000A431A60C0462F4BDB681B68DB07DB0F24
:1023E000DBB2012BF7D02B4BDB689A6803218A43C1
:1023F0009A60284BDB689A6803218A4301210A43CB
:102400009A60244BDB68BA1D12781209D2B211000F
:102410000F220A4010210A431A621E4BDB681A6819
:1024200001210A431A60C0461A4BDB681B68DB07B0
:10243000DB0FDBB2012BF7D0164BDB689A68032168
:102440008A439A60134BDB689A6803218A4301210F
:102450000A439A600F4BDB68BA1D12780F210A40BD
:102460001A620C4BDB681A6801210A431A60C046E5
:10247000084BDB681B68DB07DB0FDBB2012BF7D0F7
:10248000044BDB689A6803218A439A60C046BD46C4
:1024900002B080BD2406002090B587B000AF0400D4
:1024A00008001100FB1D221C1A70BB1D021C1A70B3
:1024B0007B1D0A1C1A7000237B6100233B617B1D7E
:1024C0001B78203B1B013B6100237B6123E0FB1D4C
:1024D0001B78DB18D8B2BB1D1B78DB00DBB25B427C
:1024E000DAB27B69DBB2D31ADBB27F3BDBB2190015
:1024F000FFF750FF3A697B69D2180F23FB18204978
:102500008A5C1A700F23FB181B781800FFF710FF66
:102510007B6901337B617B69072BD8DD00237B61FD
:1025200027E0FB1D1B78DB18DBB20133D8B2BB1DE3
:102530001B78DB00DBB25B42DAB27B69DBB2D31A19
:10254000DBB27F3BDBB21900FFF724FF3A697B69FE
:10255000D31808331A000F23FB1809498A5C1A7034
:102560000F23FB181B781800FFF7E2FE7B6901338D
:102570007B617B69072BD4DDC046BD4607B090BDAB
:102580003400002080B584B000AF02003960FB1D2C
:102590001A700023FB60FB68D9B23B685A1C3A6092
:1025A0001A78FB1D1B781800FFF776FFFB680133D4
:1025B000FB60FB680F2B04DC3B681B78002BEAD127
:1025C00000E0C046C046BD4604B080BD80B582B0C4
:1025D00000AF00237B6000210020FFF7DBFE00231B
:1025E0007B6005E00020FFF7A3FE7B6801337B6082
:1025F0007B68054A9342F5DD0F20FFF799FEC04640
:10260000BD4602B080BDC0461F0400000022430842
:102610008B4274D303098B425FD3030A8B4244D3AA
:10262000030B8B4228D3030C8B420DD3FF220902EC
:1026300012BA030C8B4202D31212090265D0030BAB
:102640008B4219D300E0090AC30B8B4201D3CB03A1
:10265000C01A5241830B8B4201D38B03C01A5241E3
:10266000430B8B4201D34B03C01A5241030B8B42E5
:1026700001D30B03C01A5241C30A8B4201D3CB02D0
:10268000C01A5241830A8B4201D38B02C01A5241B5
:10269000430A8B4201D34B02C01A5241030A8B42B8
:1026A00001D30B02C01A5241CDD2C3098B4201D3D0
:1026B000CB01C01A524183098B4201D38B01C01A4E
:1026C000524143098B4201D34B01C01A52410309C5
:1026D0008B4201D30B01C01A5241C3088B4201D374
:1026E000CB00C01A524183088B4201D38B00C01A21
:1026F000524143088B4201D34B00C01A5241411A48
:1027000000D20146524110467047FFE701B5002054
:1027100000F0F0F802BDC0460029F7D076E7704718
:1027200003460B437FD4002243088B4274D3030932
:102730008B425FD3030A8B4244D3030B8B4228D3D3
:10274000030C8B420DD3FF22090212BA030C8B42F9
:1027500002D31212090265D0030B8B4219D300E099
:10276000090AC30B8B4201D3CB03C01A5241830B1E
:102770008B4201D38B03C01A5241430B8B4201D3CE
:102780004B03C01A5241030B8B4201D30B03C01AF7
:102790005241C30A8B4201D3CB02C01A5241830A71
:1027A0008B4201D38B02C01A5241430A8B4201D3A0
:1027B0004B02C01A5241030A8B4201D30B02C01ACA
:1027C0005241CDD2C3098B4201D3CB01C01A524131
:1027D00083098B4201D38B01C01A524143098B42BA
:1027E00001D34B01C01A524103098B4201D30B01A3
:1027F000C01A5241C3088B4201D3CB00C01A5241C8
:1028000083088B4201D38B00C01A524143088B428C
:1028100001D34B00C01A5241411A00D20146524125
:10282000104670475DE0CA0F00D04942031000D344
:102830004042534000229C4603098B422DD3030A99
:102840008B4212D3FC22890112BA030A8B420CD3A9
:10285000890192118B4208D3890192118B4204D3D2
:1028600089013AD0921100E08909C3098B4201D352
:10287000CB01C01A524183098B4201D38B01C01A8C
:10288000524143098B4201D34B01C01A5241030903
:102890008B4201D30B01C01A5241C3088B4201D3B2
:1028A000CB00C01A524183088B4201D38B00C01A5F
:1028B0005241D9D243088B4201D34B00C01A524136
:1028C000411A00D20146634652415B10104601D3C3
:1028D0004042002B00D54942704763465B1000D34D
:1028E000404201B5002000F005F802BD0029F8D0F3
:1028F00016E770477047C046F0B5564644465F46F7
:102900004D46F0B444024600C70F83B08846650ABE
:10291000360EBA463DD0FF2E22D00023EC00802593
:1029200099469B46ED0425437F3E43465C02580092
:10293000DB0F640A000E984636D0FF2830D0802383
:102940000021E400DB041C437F38301A0190484624
:1029500042460843724E800030587A401300874642
:10296000002D44D108239946063B9B46DDE7012212
:10297000FF2000241A406402C305640AD2071C43E6
:102980001443200003B03CBC90469946A246AB4697
:10299000F0BD002D20D104239946033B9B46C4E79C
:1029A000002C17D1022102E0002C0AD10121321A99
:1029B00001924A4643460A435A48920082587B4055
:1029C0009746200000F030FA431F76309C4040428A
:1029D0000021BAE70321B8E7280000F025FA431FD9
:1029E0009D4000237630464299469B469DE70C2346
:1029F0009946093B9B4698E780240022E403FF2088
:102A0000B9E70024C2468B465A465346022AAED046
:102A1000032A7DD0012A31D1012200201A4000244E
:102A2000A9E70122101A1B2856DD1A4000200024B5
:102A3000A1E78023DB031D424BD18023DB032B4323
:102A40005C02640A3A00FF2095E76D01600185424F
:102A500030D2019A0024013A01921B220127290059
:102A600064006D00002901DBA84201D82D1A3C4307
:102A7000013A002AF3D16A1E95412C4301987F3018
:102A80000028CEDD620704D00F222240042A00D0A5
:102A90000434220103D5244A019814408030FE28D2
:102AA00000DD64E70122A401640AC0B21A4062E7B3
:102AB0002C00A9E72D1A1A220124CFE76B02BCD5FE
:102AC00000248023DB031C436402640A4246FF2087
:102AD00051E71C42B3D1F4E721002022C140101A73
:102AE0008440621E94410C43620704D00F222240AE
:102AF000042A00D00434620104D5012201201A40C6
:102B0000002438E70122A401640A1A40002032E7B9
:102B10008023DB031C436402640A5246FF202AE739
:102B2000A0300000E0300000FFFFFFF7F0B557468F
:102B30004E4645464300E0B446028846760A1F0EDC
:102B4000C40F002F47D0FF2F25D0002380259A46A1
:102B50009946F600ED042E437F3F434642465D0210
:102B6000D20F5B006D0A1B0E904640D0FF2B39D070
:102B700080220020ED00D20415437F3BFB18424623
:102B80005746591C62408C4607430F2F5CD86F494B
:102B9000BF00C9598F46002E45D108239A46063BEF
:102BA0009946DAE7424602282DD0032800D1C3E037
:102BB000012800D0A2E0002500260240D4B276020F
:102BC000ED05760A2E43E407264330001CBC9046F0
:102BD0009946A246F0BD002E1AD104239A46033B23
:102BE0009946BAE72A00511E8A41901CC6E7012087
:102BF000002DC3D0280000F017F9431F76309D4008
:102C000043420020BAE70124FF2514400026D6E7FE
:102C1000300000F009F9431F9E4000237630474200
:102C20009A46994699E70C239A46093B994694E7B8
:102C300080260024F603FF25C1E735004846B2E7A9
:102C4000350022004846AEE72904090C0800370C7D
:102C50003604360C2C0C7943704367437443060CDE
:102C600064183619B14203D9802149028846474485
:102C70000004000C310409188D01681E8541890E7D
:102C80002943350CED19AD010D43290104D501236C
:102C900069081D4063460D4319007F31002925DD79
:102CA000680704D00F202840042800D004352801EC
:102CB00003D5274980330D401900FE29A3DC0124E8
:102CC000AD016E0A1440CDB279E78020C003064200
:102CD00007D0054205D128434602760A4446FF251F
:102CE0006DE706437602760AFF2568E70124611A3C
:102CF0001B2905DD14400025002660E76346CBE76D
:102D00002E002023CE40591A8D406B1E9D412E432C
:102D1000730704D00F233340042B00D00436730113
:102D200004D5012401251440002648E70124B601FA
:102D3000760A1440002542E780260124F6032E433C
:102D40007602760A1440FF2539E7C046203100009C
:102D5000FFFFFFF74302590A4300C20F1B0E00207A
:102D60007E2B0EDD9D2B0DDC802000040143952B76
:102D70000BDC9620C31AD9400B005842002A00D120
:102D800018007047034BD018FBE7963B99400B00A7
:102D9000F3E7C046FFFFFF7F70B5002830D0C317B0
:102DA000C5185D40C40F280000F03EF89E231B1A92
:102DB000962B0DDC9622D21A95406A02520AD8B29E
:102DC0005202C005520AE40702432243100070BDBC
:102DD000992B19DC9922D21A9540124A2A40690788
:102DE00004D00F210D40042D00D00432510103D531
:102DF0000C4B1A409F231B1A9201520AD8B2DFE7EC
:102E0000002400200022DBE705222E00121AB9213F
:102E1000D6402A00C91A8A40551EAA4135001543DA
:102E2000DBE7C046FFFFFFFB1C2101231B04984288
:102E300001D3000C10391B0A984201D3000A08394B
:102E40001B09984201D30009043902A2105C401802
:102E50007047C046040302020101010100000000A6
:102E600000000000202020547567617320416B68CA
:102E70006972000020205072616B74696B756D205F
:102E8000544D000020202020202032303139000015
:102E90002020204B656C6F6D706F6B20333200000B
:102EA000202020202057454C434F4D450000000076
:102EB000202020546F204F75722047616D650000FF
:102EC00020204D697373696E67204E756D6265725F
:102ED000000000002020204765742052656164795D
:102EE000000000005072657061726520596F757244
:102EF00073656C6620696E00202020202020202031
:102F0000330000002020202020202020320000005C
:102F1000202020202020202031000000352C342CBF
:102F2000332C322C2E2E2E002050757368205468BE
:102F300065204B65797061640000000020204C69B9
:102F40006D697465642054696D650000202020203F
:102F500054525545210000002020204E65787420F1
:102F60004C6576656C0000002020202046414C53C3
:102F70004521000020202054727920416761696E4C
:102F80000000000031302C382C362C342C2E2E2E04
:102F9000000000002D312C302C312C322C2E2E2E06
:102FA000000000005075736820546865204B6579F7
:102FB000706164004C696D697465642054696D6565
:102FC0000000000054525545210000004E65787401
:102FD000204C6576656C000046414C53452100004D
:102FE00054727920416761696E00000031362C31DE
:102FF000322C382C2E2E2E2C30000000322C332C6C
:103000002E2E2E2C372C313100000000312C332C89
:103010002E2E2E2C31302C313500000033352C3241
:10302000382C32312C31342C2E2E2E00312C322CD7
:10303000332C352C2E2E2E2C31330000332C352CF6
:10304000372C2E2E2E2C3131000000004C69666585
:10305000203A2033000000004C696665203A203297
:10306000000000004C696665203A20310000000035
:103070002020202054696D65204973205570000080
:10308000202020202054727920416761696E000061
:103090002020202047616D65204F7665720000007A
:1030A0004A2A00006E2900002C2A0000042A000091
:1030B0002C2A0000F82900002C2A0000042A000015
:1030C0006E2900006E290000F8290000042A000083
:1030D000B02A0000B02A0000B02A0000322A000006
:1030E0006E2900006E290000182A0000022A000044
:1030F000182A0000F8290000182A0000022A0000FF
:103100006E2900006E290000F8290000022A000044
:10311000B02A0000B02A0000B02A0000BC2A00003B
:10312000482C0000A62B0000A62B0000A42B0000BA
:103130003A2C00003A2C0000302C0000A42B000098
:103140003A2C0000302C00003A2C0000A42B000088
:10315000402C0000402C0000402C0000CA2C000035
:103160000080510116000000001BB7000080000025
:10317000008051011027000000805101801A0600D4
:10318000DC0500000300000082EE07466A5212E6EA
:1031900002620000000000000000000000000000CB
:1031A00000000000F000000000000000CF00000060
:1031B000000000000000000000000000F00000F02F
:1031C00000000000000000C030C03000C839CF3916
:1031D0000F090100E01010F810106000304142FFAC
:1031E00042443800C02010E020E0180001C2310C39
:1031F0007388443800E01010E00000007885828D6C
:1032000070A29E420000000000000000F0000000DC
:1032100000000000C0300804000000001F608000B3
:1032200000000000040830C0000000000080601FA3
:103230000000000000000000000000004428FE28FC
:10324000440000000000008000000000080808FFA3
:10325000080808000000000000000000B070000036
:10326000000000000000000000000000808080805E
:10327000000000000000000000000000C0C00000CE
:10328000000000000000807000000000E01C03004F
:1032900000000000C020101020C000003F408080CF
:1032A000403F000020F000000000000080FF800090
:1032B000000000006010101020C00000C0A0908826
:1032C00086C1000020101010E00000008080828382
:1032D0004438000000008060F00000001816111053
:1032E000FF10000000F0101010100000808181819C
:1032F000423C000080402010101000003F428181BD
:10330000423C000070101010907000000000E01CA3
:1033100003000000C020101020C000003845828249
:1033200045380000C020101020C000008384884869
:10333000241F00000000000000000000C3C30000C4
:1033400000000000C0C0000000000000B0700000DD
:1033500000000000000000000000000010282844C9
:103360004482000000000000000000008888888877
:1033700088888888000000000000000082444428FB
:1033800028100000E010101020C000000000D80637
:1033900001000000C02010909010A0C03F408F900E
:1033A000908F505F000080708000000080F08F08D8
:1033B0008FF0800010F010101020C00080FF82827B
:1033C00082453800C0201010102070003F408080DF
:1033D0008080400010F010101060800080FF80801E
:1033E00080601F0010F010101010700080FF8282AB
:1033F0008287E00010F010101010700080FF820231
:1034000002070000C0201010207000003F408080A4
:10341000847C040010F0100010F0100080FF820285
:1034200082FF800010F010000000000080FF80008C
:1034300000000000000010F0100000004080807FBD
:103440000000000010F010805030100080FF830C4E
:10345000B0C0800010F010000000000080FF8080ED
:1034600080C0200010F0800080F0100080FF833CBE
:1034700083FF800010F0C00010F0100080FF800F6C
:1034800030FF000080601010106080001F6080809E
:1034900080601F0010F010101020C00080FF840416
:1034A00004020100E01804040418E00007182020BA
:1034B0006098870010F010101020C00080FF840C6E
:1034C00034C28100C020101010207000E0418282C0
:1034D00084483000301010F010103000000080FFE1
:1034E0008000000010F0100010F01000007F8080BD
:1034F000807F000010F0100010F0100000011EE0AE
:103500001E01000010F010C010F01000000FF00FAE
:10351000F00F0000107090009070100080E099068D
:1035200099E080001070900090701000000083FC03
:10353000830000007010101010D03000C0B08886DA
:103540008180E000FC04040000000000FF80800097
:1035500000000000708000000000000000031CE07C
:10356000000000000404FC00000000008080FF0058
:10357000000000000000000000000000806018064D
:103580001860800000000000000000008080808043
:1035900080808080000000000000000020604080EB
:1035A0000000000000000000000000006691894952
:1035B000FE80000010F0000000000000007F81810C
:1035C000423C000000000000000000003C428181FD
:1035D0008142000000000010F00000003C428181A8
:1035E0007F80000000000000000000003C4A898944
:1035F0008A4C00000000E010102000000181FF81D3
:1036000001000000804040408040000053ACA4A472
:10361000A340000010F000000000000080FF010146
:10362000FE80000000B000000000000081FF80006C
:1036300000000000000080CC000000004080807F7F
:103640000000000010F000000000000080FF98253E
:10365000C381000010F000000000000080FF800027
:1036600000000000000000000000000081FE01FEDC
:1036700001FE8000000000000000000081FE01014A
:10368000FE80000000000000000000003C4281813C
:10369000423C0000408040408000000080FFA020AD
:1036A000100F000000804040804000000F1020A05C
:1036B000FF800000000000000000000081FF820188
:1036C000010000000000000000000000E6498991B0
:1036D000926700000000C0000000000001017F812F
:1036E000814000000000000000000000017F808198
:1036F0007F8000000000000000000000010739C0CA
:10370000390701000000000000000000011FE11C5B
:10371000E11F0100000000000000000081E7181810
:10372000E781000040C0400040C040008081463832
:10373000060100000000000000000000C3A1918904
:1037400085C3000000F0080000000000027D80003A
:1037500000000000F000000000000000FF0000007A
:103760000000000008F0000000000000807D020062
:10377000000000000000000000000000C0202060E9
:10378000C0808060000003400040134000001340F0
:0437900000401340A2
:00000001FF
